S01F0000437A756A6E696B4A616B6F736369506F77696574727A612E737265639E
S11300000C9434000C9451000C9451000C94510045
S11300100C9451000C9451000C9451000C94510018
S11300200C9451000C9451000C9451000C94510008
S11300300C9451000C9451000C9451000C945100F8
S11300400C9451000C9451000C94F0100C941B115E
S11300500C9451000C9451000C9451000C945100D8
S11300600C9451000C94510011241FBECFEFD8E022
S1130070DEBFCDBF11E0A0E0B1E0E0E1FAE202C0F2
S113008005900D92AA39B107D9F721E0AAE9B1E0A8
S113009001C01D92AA3EB207E1F70E9424020C940B
S11300A006150C94000062E080E00E94160900C06E
S11300B062E080E00C941909CF93C82F80919A01D3
S11300C0662311F0816001C08E7F80939A01809134
S11300D09A018D7F80939A0160919A0180E00E9439
S11300E0DF0880919A018F7780939A0180919A0119
S11300F08F7B80939A0180919A018F7D80939A01DE
S113010080919A018F7E80939A01C7FF05C08091E8
S11301109A01806880939A01C6FF05C080919A0174
S1130120806480939A01C5FF05C080919A01806222
S113013080939A01C4FF05C080919A0180618093E5
S11301409A0160919A0180E00E94DF080E945300A6
S113015080919A018F7780939A0180919A018F7B85
S113016080939A0180919A018F7D80939A01809166
S11301709A018F7E80939A01C3FF05C080919A01F2
S1130180806880939A01C2FF05C080919A018064BF
S113019080939A01C1FF05C080919A018062809387
S11301A09A01C0FF05C080919A01806180939A01F1
S11301B060919A0180E00E94DF080E9453008091C0
S11301C09A01806180939A0180919A018062809360
S11301D09A0180919A01806480939A0180919A0196
S11301E0806880939A0160919A0180E0CF910C9489
S11301F0DF08CF9380919A018E7F80939A0180913A
S11302009A01826080939A0160919A0180E00E9431
S1130210DF0862E080E00E94160900C064E080E02C
S11302200E942D09811102C0C0E101C0C0E065E057
S113023080E00E942D09811101C0C06266E080E067
S11302400E942D09811101C0C06467E080E00E9412
S11302502D09811101C0C06862E080E00E94190983
S113026000C062E080E00E94160900C064E080E003
S11302700E942D09811101C0C16065E080E00E94E7
S11302802D09811101C0C26066E080E00E942D0941
S1130290811101C0C46067E080E00E942D098111D2
S11302A001C0C86062E080E00E9419098C2FCF91E0
S11302B008950E94F90087FDFCCF88E090E0019743
S11302C0F1F70C94F900CF93C82F0E94590160E014
S11302D08C2FCF910C945C00611102C0805809C02E
S11302E0613011F4805405C0623011F48C5601C0A1
S11302F08C520C94630181E00C946301882321F0F7
S113030080919A01877F03C080919A0188608093CD
S11303109A0160919A0180E00C94DF0882E00C94C9
S11303206301CF93C82F0E945901CA30A1F48431CC
S113033048F090EC980F943138F084518C3230F0BE
S113034080E005C080E403C084E101C084E58058F6
S1130350CF910C946301843119F460E080EC0EC0F9
S1130360843519F460E084E909C0883219F460E046
S113037084ED04C0883621F460E080E80E945C00CB
S11303800E94590161E08C2FCF910C945C00CF93B3
S1130390DF93EC018991882319F00E949101FACF2F
S11303A0DF91CF9108951F93CF93DF93182F0E946D
S11303B0D60810929A0160919A0180E00E94DF08A9
S11303C080E09AEF0197F1F780919A01806280931F
S11303D09A0180919A01806180939A0160919A01B7
S11303E080E00E94DF080E94530080E09EE40197B1
S11303F0F1F70E945300C0E0D1E0CE010197F1F77C
S11304000E945300CE010197F1F780919A018F7EEB
S113041080939A0160919A0180E00E94DF080E9413
S113042053002197F1F788E20E94630188E00E945B
S113043063010E947B0186E00E946301812FDF91AA
S1130440CF911F910C946301CF93DF93CDB7DEB7A7
S1130450C95FD2400FB6F894DEBF0FBECDBF209A5D
S11304602898529A5A9A8DE00E94D3010E948E01D4
S113047080E00E947E0187E490E00E94451140E004
S113048050E060E072E0CE0101960E94E804CD5194
S1130490DD4F8883C35ED240811109C0CE018F55E0
S11304A09D4F0E94310C80E091E00E943A0D60E083
S11304B081E00E946C0189E091E00E94C70160E044
S11304C08CE00E946C0183E191E00E94C70161E02D
S11304D081E00E946C0185E191E00E94C70161E026
S11304E08CE00E946C0183E191E00E94C70162E00C
S11304F081E00E946C018FE191E00E94C70162E0FB
S11305008CE00E946C0183E191E00E94C70163E0EA
S113051081E00E946C0188E291E00E94C7019E0183
S113052029523D4F39014E013FEF831A3DEF930AA3
S113053028984A9BFDCF289ACE018F599D4F0E943F
S11305406011C759DD4F08811981C956D240C55978
S1130550DD4F88819981CB56D240080F191FC359AA
S1130560DD4FE880F980CD56D240C159DD4F8881F6
S11305709981CF56D240E80EF91ECF58DD4FC8807E
S1130580D980C157D240CD58DD4F88819981C35756
S1130590D240C80ED91ECB58DD4F28813981C557AA
S11305A0D240C958DD4F88819981C757D240A901EB
S11305B0480F591FCF51DD4F59834883C15ED24044
S11305C0C758DD4F28803980C957D240C558DD4F00
S11305D088819981CB57D240280E391EC358DD4FEC
S11305E048805980CD57D240C158DD4F88819981C8
S11305F0CF57D240480E591ECF57DD4F888199817D
S1130600C158D240CC51DD4F99838883C45ED24017
S1130610CD57DD4F28813981C358D240CA51DD4FAF
S113062039832883C65ED240CB57DD4F4881598138
S1130630C558D240C851DD4F59834883C85ED24063
S1130640C957DD4F88819981C758D240C651DD4FC3
S113065099838883CA5ED240C757DD4F2881398188
S1130660C958D240C451DD4F39832883CC5ED2406F
S1130670C557DD4F48815981CB58D240C251DD4F17
S113068059834883CE5ED240C357DD4F8881998118
S1130690CD58D240C051DD4F99838883C05FD2408A
S11306A0C157DD4F28813981CF58D240CE50DD4F1C
S11306B039832883C25FD240CF56DD4F48815981A8
S11306C0C159D240CC50DD4F59834883C45FD240D6
S11306D0CD56DD4F88819981C359D240CA50DD4F30
S11306E099838883C65FD240CB56DD4F28813981F8
S11306F0C559D240C850DD4F39832883C85FD240E2
S1130700C956DD4FA880B980C759D24060E081E066
S11307100E946C0189E091E00E94C70160E089E0D9
S11307200E946C014AE0BE0163537D4FC8010E94E0
S1130730E711CE0183539D4F0E94C70160E08CE016
S11307400E946C0183E191E00E94C7014AE0BE016E
S113075063537D4FCF51DD4F88819981C15ED24073
S11307600E94E711CE0183539D4F0E94C70161E0AF
S113077081E00E946C0185E191E00E94C70161E083
S113078089E00E946C014AE0BE0163537D4FC701BA
S11307900E94E711CE0183539D4F0E94C70161E07F
S11307A08CE00E946C0183E191E00E94C7014AE061
S11307B0BE0163537D4FC1010E94E711CE018353F3
S11307C09D4F0E94C70162E081E00E946C018FE1AD
S11307D091E00E94C70162E089E00E946C014AE056
S11307E0BE0163537D4FC6010E94E711CE018353BE
S11307F09D4F0E94C70162E08CE00E946C0183E17E
S113080091E00E94C7014AE0BE0163537D4FC201DB
S11308100E94E711CE0183539D4F0E94C70163E0FC
S113082081E00E946C010D30110540F43AE1E316B9
S1130830F10420F443E3C416D10438F080E391E0DA
S11308400E94C7016EE371E006C087E491E00E9454
S1130850C70165E571E0C3010E94E011CD51DD4F90
S11308605881C35ED240511187C0C850DD4F888182
S11308709981C85FD240A80EB91EBF92AF92CC50E6
S1130880DD4F88819981C45FD240CA50DD4F2881F1
S11308903981C65FD240820F931F9F938F93C051BB
S11308A0DD4F88819981C05FD240CE50DD4F4881B1
S11308B05981C25FD240840F951F9F938F93C45177
S11308C0DD4F88819981CC5ED240C251DD4F2881B1
S11308D03981CE5ED240820F931F9F938F93C8516C
S11308E0DD4F88819981C85ED240C651DD4F488171
S11308F05981CA5ED240840F951F9F938F93CC5128
S1130900DD4F88819981C45ED240CA51DD4F288170
S11309103981C65ED240820F931F9F938F937F923B
S11309206F925F924F92DF92CF923F922F92FF92FB
S1130930EF92CE51DD4F3881C25ED2403F93CF510A
S1130940DD4F4881C15ED2404F931F930F9380E6E1
S113095091E09F938F939F928F920E940C12A40117
S113096060E071E0CE018F559D4F0E941F050FB6C8
S1130970F894DEBF0FBECDBF5FEF8FEB98EA515006
S113098080409040E1F700C000000E947B01D1CD7F
S1130990219A882361F029988CB580648CBD83EDFD
S11309A090E30197F1F700C000000C94B707299A6F
S11309B08CB58F7B8CBD85B1877C85B99FE52AEE8C
S11309C080E0915020408040E1F700C0000008958D
S11309D0CF9324B12C6224B92A9A2CB520652CBD5E
S11309E09093E7018093E6017093E9016093E80135
S11309F0442319F08CB581608CBD80E00E94C8044A
S1130A002FE986E891E0215080409040E1F700C052
S1130A10000081E00E94C8042FE986E891E021509B
S1130A2080409040E1F700C00000CFEF0E94B7077C
S1130A30C150882311F0C111F9CFCF9108952F929D
S1130A403F924F925F926F927F928F929F92AF925A
S1130A50BF92CF92DF92EF92FF920F931F93CF93A7
S1130A60DF9300D000D000D0CDB7DEB75C017E8329
S1130A706D838A01FA0101900020E9F731974F0153
S1130A80841A950A7090E6016090E70180E00E9464
S1130A90C80487EA91E60197F1F700C0000081E0FD
S1130AA00E94C80488EEE82E83E0F82E0E94B7075F
S1130AB0882329F091E0E91AF108C0F705C0EF286E
S1130AC019F48FEF90E086C1B8EEEB2EB3E0FB2E65
S1130AD0C5010E94310C882329F0F1E0EF1AF108D6
S1130AE0B8F777C1EF2809F473C1A8EEEA2EA3E0A2
S1130AF0FA2E8D819E810E943A0D882329F031E0DF
S1130B00E31AF108B0F765C1EF2809F461C1C12CFB
S1130B10D12C7601AE014F5F5F4F60E072E08091AF
S1130B20E6019091E7010E94940D89819A818115D3
S1130B309240B8F0272D362D40E050E0C9012F5FD8
S1130B403F4FFC016081603A89F04F5F5F4F411570
S1130B50F2E05F0799F78FEFC81AD80AE80AF80A93
S1130B60D9CF11E00E94B707812F33C160E072E052
S1130B70FB01E41BF50BFC83EB8329E0CC0CDD1CAF
S1130B80EE1CFF1C2A95D1F7E815F90598F1A4018C
S1130B90B8010E94D711F8EE8F2EF3E09F2EA12CFE
S1130BA0B12CC701B6010E947D0F882361F021E0BA
S1130BB0821A9108A108B1083FEF83169306A30691
S1130BC0B30679F706C089288A288B2811F414E61D
S1130BD0C9CFAE014F5F5F4F60E072E0872D962D65
S1130BE00E94720E89819A818115924008F0C8C0D2
S1130BF015E0B8CF4B815C81B8010E94D711E8EEB3
S1130C002E2EE3E03E2E412C512CC701B6010E944A
S1130C107D0F882309F4B6C0F1E02F1A310841088A
S1130C2051082FEF221632064206520671F7AE0122
S1130C304F5F5F4F60E072E0872D962D0E94720E29
S1130C4089819A818115924098F2AE014F5F5F4F7E
S1130C5060E070E080E090E00E94720E78EE872EF3
S1130C6073E0972E0E94B707882309F491C081E0AE
S1130C70881A9108B8F768EE862E63E0962EC501AF
S1130C800E94310C811188C0892809F4A1C058EE52
S1130C90A52E53E0B52E8D819E810E943A0D8111BF
S1130CA081C0AB2809F494C082E0D80EE11CF11C89
S1130CB048EE842E43E0942EA12CB12CC701B6013A
S1130CC00E947D0F882309F473C091E0891A91086A
S1130CD0A108B108EFEF8E169E06AE06BE0671F7A8
S1130CE06091E8017091E901AE014F5F5F4F80911F
S1130CF0E6019091E7010E94940D6B817C81600F65
S1130D00711FFB0101900020E9F73197AF01461BE9
S1130D10570B872D962D0E94D71138EE832E33E082
S1130D20932EA12CB12CC701B6010E947D0F8823FC
S1130D3009F444C0F1E08F1A9108A108B1082FEF1B
S1130D4082169206A206B20671F7AE014F5F5F4F9C
S1130D5060E072E0872D962D0E94720EAE014F5F07
S1130D605F4F60E070E080E090E00E94720E08EE59
S1130D7013E00E94B707882339F101501109C8F71D
S1130D8010E0F0CE23282428252809F420CF4FCFC3
S1130D90892809F496CE6FCFE1E08E1A910808F005
S1130DA06ECF17C021E0A21AB10808F074CF11C0A9
S1130DB089288A288B2809F40ACF92CF89288A287F
S1130DC08B2809F404CFC1CF012B09F47ACED8CFF4
S1130DD08FEF90E026960FB6F894DEBF0FBECDBF1E
S1130DE0DF91CF911F910F91FF90EF90DF90CF9003
S1130DF0BF90AF909F908F907F906F905F904F9037
S1130E003F902F9008958FEF8EBD0DB407FEFDCF58
S1130E108EB508952A9A0C940307CF92DF92EF922D
S1130E20FF92CF93C82F6A017B0187FF09C040E07E
S1130E3050E0BA0187E70E940D078230D0F5CF77E2
S1130E402A9A0E9403072A980E940307CEBD0DB474
S1130E5007FEFDCF8F2D9927AA27BB278EBD0DB482
S1130E6007FEFDCFC701AA27BB278EBD0DB407FE21
S1130E70FDCFBB27AF2D9E2D8D2D8EBD0DB407FE4E
S1130E80FDCFCEBC0DB407FEFDCFC03421F0C83475
S1130E9021F487E803C085E901C081E08EBD0DB46B
S1130EA007FEFDCFCAE00E94030787FF02C0C150BE
S1130EB0D1F7CF91FF90EF90DF90CF9008950F93EB
S1130EC01F93CF93AB01BC01411551056105710519
S1130ED011F180919D0183FD07C089E0440F551FE6
S1130EE0661F771F8A95D1F788E50E940D07811147
S1130EF038C08FEF8EBD0DB407FEFDCF8EEF8EBDD3
S1130F000DB407FEFDCF80E092E090939C018093A6
S1130F109B01C0E027C080919B0190919C010296A7
S1130F20019710F01EBCFCCF0DB407FEFDCF0E944C
S1130F3003078F71853019F408EE1DEF07C0C1E077
S1130F400DC001151105D9F3015011090E940307C1
S1130F508F3FB9F7C1E0012B09F0C0E00E940A07F6
S1130F6001C0C1E08C2FCF911F910F910895CF92B2
S1130F70DF92EF92FF920F931F93CF93DF9300D0F2
S1130F8000D0CDB7DEB72A9905C060E070E0CB0190
S1130F900E945F0714E60E9403071150E1F740E046
S1130FA050E0BA0180E40E940D07813009F058C076
S1130FB04AEA51E060E070E088E40E940D07813065
S1130FC049F58E010F5F1F4F6E0185E0C80ED11CDD
S1130FD078010E940307F70181937F01EC15FD0559
S1130FE0C1F78B81813009F03BC08C818A3AC1F50D
S1130FF090EEE92E9EE2F92E40E050E060E070E4CD
S113100089EE0E940D07882319F1F1E0EF1AF10827
S113101099F726C040E050E0BA0189EE0E940D071E
S1131020823018F011E001E402C012E009EE88EA0F
S1131030E82E81E6F82E40E050E0BA01802F0E94AD
S11310400D07882331F1F1E0EF1AF108A1F708C088
S113105040E050E0BA018AE70E940D07882311F0AE
S113106010E00CC00E940307F80181938F01CE1693
S1131070DF06C1F7898186FD0AC014E010939D0143
S11310800E940A0781E0112371F080E00CC01CE08B
S1131090F5CF40E052E060E070E080E50E940D078B
S11310A08111DECFEBCF0F900F900F900F90DF9157
S11310B0CF911F910F91FF90EF90DF90CF90089503
S11310C0CF92DF92EF92FF920F931F93CF93DF9310
S11310D07C01690180919D0183FD07C089E0440F73
S11310E0551F661F771F8A95D1F781E50E940D076A
S11310F0882311F0C1E02BC0C0E3D5E70E940307A9
S11311008F3F19F42197D1F7F5CF8E3F99F7C2E0BD
S1131110D2E0C01BD10BCC19DD09C114D10421F4D8
S1131120E114F10439F40EC00E94030781E0C81AE7
S1131130D108F3CF0E940307F70181937F01015087
S11311401109C1F70E9403072197E1F7C0E00E944B
S11311500A078C2FDF91CF911F910F91FF90EF9091
S1131160DF90CF9008950097D9F0FC014115510507
S1131170D9F080919B0190919C01892BA9F08191D8
S11311808EBD0DB407FEFDCF80919B0190919C0113
S1131190019790939C0180939B0141505109E6CFA4
S11311A0CB01BA010C945F0780E008950E94A5105A
S11311B083E08A95F1F700001092E5010895CF933A
S11311C081110DC0C62F6093E5018EE40E94AB101F
S11311D08C2F0E94D5100E94CD1080E001C08FEFAB
S11311E0CF910895CF93DF9381111CC06830D0F460
S11311F08091E501C1E0D0E001C0CC0F6A95EAF727
S1131200442311F0C82B02C0C095C823C093E50144
S11312108EE40E94AB108C2F0E94D5100E94CD103A
S113122080E001C08FEFDF91CF91089541E00C94ED
S1131230F20840E00C94F208CF9381110AC08FE4C5
S11312400E94AB100E94E610C82FC0950E94CD10DA
S113125001C0CFEF8C2FCF910895CF93882311F045
S11312608FEF11C06830E0F7C62F80E00E941C09A0
S11312708F3FB1F3082E000C990B02C0959587950A
S1131280CA95E2F78170CF9108950F931F93E0916F
S11312909E01F0919F019B01AC012250310941094B
S11312A0510980859185A285B3850297A109B10969
S11312B0281739074A075B0768F4A181B0E00E9448
S11312C0BD110489158926893789600F711F821F12
S11312D0931F03C060E070E0CB011F910F9108954C
S11312E00F931F93CF93DF93DC01E0919E01F09164
S11312F09F0111961C921E9214966D917D918D9171
S11313009C911797613071058105910561F1008504
S1131310118522853385601771078207930718F5B5
S1131320611571058105910539F42081233021F47B
S11313306089718982899389ED01688779878A87B1
S11313409B87611571058105910519F00E94450976
S113135004C060897189828993896C877D878E87AF
S11313609F8780E001C081E0DF91CF911F910F91B1
S113137008954F925F926F927F92AF92BF92CF92F5
S1131380DF92EF92FF920F931F93CF93DF9300D0DE
S113139000D0CDB7DEB7623071058105910508F440
S11313A0AAC0A0909E01B0909F01F501C084D18491
S11313B0E284F3846C157D058E059F0508F09BC0BF
S11313C06B017C018081823009F452C0833009F4BE
S11313D06BC0813009F08FC02601569447944C0CA1
S11313E05D1C92013170452C55244694612C712C5E
S11313F04485558566857785440D551D661D771D85
S11314002F3FF1E03F0729F002E010E0CE01019602
S11314101BC001E010E02FEF31E0CE0101960E94E5
S11314206008811168C0F501448555856685778516
S11314304F5F5F4F6F4F7F4F440D551D661D771DE6
S113144020E030E0CE0102960E946008811153C072
S113145089819A81C0FE07C0BC01E4E07695679556
S1131460EA95E1F702C0BC017F7080E090E047C0DC
S113147096013327220F331F77276F2D5E2D4D2DB5
S1131480F50184859585A685B785480F591F6A1F80
S11314907B1F02E010E0CE0101960E9460088111DA
S11314A02AC069817A81E1CF96012F773327220FF1
S11314B0331F220F331F97E0F694E794D794C79411
S11314C09A95D1F7F50144855585668577854C0D48
S11314D05D1D6E1D7F1D04E010E0CE0101960E948B
S11314E06008811108C089819A81AB81BC81BC01EB
S11314F0CD019F7004C061E070E080E090E00F9047
S11315000F900F900F90DF91CF911F910F91FF904B
S1131510EF90DF90CF90BF90AF907F906F905F90EF
S11315204F900895CF92DF92EF92FF920F931F9303
S1131530CF93DF93EC01088119810F5F1F4F11F4E2
S113154083E05BC04C855D856E857F8541155105C3
S113155061057105A9F3C8018F709927892B09F0DA
S113156047C0E0909E01F0909F014F5F5F4F6F4F27
S11315707F4F4C875D876E877F87688579858A85ED
S11315809B85F701611571058105910531F484810D
S1131590958108171907A0F62BC0218130E0A90115
S11315A0415051099801E4E036952795EA95E1F711
S11315B024233523232BE1F40E94B90962307105F9
S11315C081059105C8F0F701C084D184E284F384D5
S11315D06C157D058E059F0508F0B2CF6887798765
S11315E08A879B870E9445096C877D878E879F87A2
S11315F01983088380E001C081E0DF91CF911F91BE
S11316000F91FF90EF90DF90CF900895CF92DF92EB
S1131610EF92FF920F931F93CF93DF93EC016A0134
S11316207B0102E010E02EEF31E00E94600881119E
S113163026C08881998185359A4A19F526E330E0D8
S1131640B701A601CE010E946008811107C08881FC
S113165099818634914411F480E016C002E010E0D0
S113166022E530E0B701A601CE010E946008811195
S11316700AC0888199818634914429F4EDCF83E0AE
S113168003C082E001C081E0DF91CF911F910F91EF
S1131690FF90EF90DF90CF900895AF92BF92CF92DA
S11316A0DF92EF92FF920F931F93CF93DF93EC019E
S11316B06B01FB0180816F5F7F4F8032C9F38F32F2
S11316C009F46B011C821D821E821F82F601808137
S11316D0813218F050E2E52E74C0CE010E947009E8
S11316E0F82EE0919E01F0919F010680F781E02D94
S11316F01082ABC090E080E028E031E0380FD601E2
S1131700A80FB11D8C91813208F066C0C30ED11CA4
S113171091E0813208F090E09387CE010E94700935
S1131720F82E81117BC0E0919E01F0919F01A6806B
S1131730B780288139812F70332745E0220F331F6A
S11317404A95E1F74C855D856E857F8500E210E062
S1131750C5010E94600881116CC0F5018081882355
S113176009F45FC0838583FD52C06A817B81C50112
S1131770DB01AB01455F5F4F4A175B0709F040C0CF
S1131780FB018385811161C0E0919E01F0919F016D
S11317900680F781E02D838584FF48C0848995897C
S11317A0A0E0B0E0DC0199278827428D538D60E0EA
S11317B070E0842B952BA62BB72B8C839D83AE8353
S11317C0BF83EA81FB81DF01CF010B96A817B9071C
S11317D009F490CFED92FACF8F3209F497CF8E327D
S11317E071F1921708F092CF4FE9480F4A3108F48B
S11317F08052DF01A90FB11D8C939F5F832F7DCF92
S1131800FC013191CF012D91321709F4B5CFCE01EE
S11318100E94920A882309F48CCFF82EF3E0FF1279
S113182014C0EA81FB818385811106C034E0F32E64
S11318300CC0FF24F39409C083E0F82E06C02830BE
S113184009F064CF98E02BE0D9CF8F2DDF91CF91B1
S11318501F910F91FF90EF90DF90CF90BF90AF90CA
S113186008952F923F924F925F926F927F928F9240
S11318709F92AF92BF92CF92DF92EF92FF920F931B
S11318801F93CF93DF93CDB7DEB7A4970FB6F89429
S1131890DEBF0FBECDBF10929F0110929E01009734
S11318A009F4CCC01C010E94B70780FDC9C040E008
S11318B050E0BA01CE0101960E94060B8130F9F482
S11318C000E110E02EEB31E040E050E0BA01CE013F
S11318D001960E946008882311F081E0B2C08D81D6
S11318E0811102C087E0ADC049845A846B847C8432
S11318F0B301A201CE0101960E94060B03C0412C44
S1131900512C3201833049F38111ECCF04E210E011
S11319102DE030E0B301A201CE0101960E946008DF
S11319208111DBCF2A853B8540E050E0211531054C
S11319304105510521F4288D398D4A8D5B8DAC818B
S1131940B0E00E94BD116B017C014A815B8160E0C3
S113195070E0440E551E661E771EF10144865586BE
S113196066867786298121838D809E8095828482F4
S11319708F819885A0E0B0E00097A105B10521F41E
S11319808C899D89AE89BF8934E0969487943A9571
S1131990E1F7A12CB12C841B950BA60BB70B8C196A
S11319A09D09AE09BF09BC01CD01681979098A09ED
S11319B09B0930E040E050E00E949B11DA01C9012C
S11319C00296A11DB11DF10180879187A287B3877B
S11319D0873FFFE09F07A105B10538F0873F9F4F80
S11319E0A105B10520F083E003C081E001C082E0DD
S11319F0F1018083833029F488A199A1AAA1BBA114
S1131A0007C0D701C601840D951DA61DB71DF101A0
S1131A10808B918BA28BB38B840C951CA61CB71C5A
S1131A208C0C9D1CAE1CBF1CF101848A958AA68A6D
S1131A30B78A128230929F0120929E0180E001C0F9
S1131A4082E0A4960FB6F894DEBF0FBECDBFDF913F
S1131A50CF911F910F91FF90EF90DF90CF90BF90A7
S1131A60AF909F908F907F906F905F904F903F903A
S1131A702F9008950F931F93CF93DF93CDB7DEB7C5
S1131A80EC970FB6F894DEBF0FBECDBF00919E0158
S1131A9010919F0101151105C9F1BC01F8011282D1
S1131AA0CE01019697838683C0969CA38BA340970F
S1131AB00E944D0B81112DC08981882349F18C85A9
S1131AC084FD26C08D899E89A0E0B0E0DC019927C1
S1131AD088274B8D5C8D60E070E0842B952BA62BC2
S1131AE0B72BF80180A391A3A2A3B3A38D8D9E8DE0
S1131AF0AF8DB8A1848F958FA68FB78F108E118E5E
S1131B00128E138E81E0828380E003C086E001C0E0
S1131B1083E0EC960FB6F894DEBF0FBECDBFDF9125
S1131B20CF911F910F9108954F925F926F927F9280
S1131B308F929F92AF92BF92CF92DF92EF92FF92D9
S1131B400F931F93CF93DF934C016B015A01C09104
S1131B509E01D0919F01FA0111821082209709F40D
S1131B60ADC08A8180FFACC08C8D9D8DAE8DBF8D44
S1131B70488D598D6A8D7B8D841B950BA60BB70BF5
S1131B80A60160E070E084179507A607B70708F47C
S1131B906C013401412CF2E05F2EC114D10409F42C
S1131BA088C0E88CF98C0A8D1B8DD801C70191700F
S1131BB0AA27BB27892B8A2B8B2B09F047C02981A5
S1131BC030E040E050E0C801B701E9E09695879520
S1131BD077956795EA95D1F70E949B11672B682B3F
S1131BE0692BD1F4EF28E02AE12A29F468A179A12C
S1131BF08AA19BA106C06CA17DA18EA19FA10E9478
S1131C00B909623071058105910508F454C06CA3CB
S1131C107DA38EA39FA31B826CA17DA18EA19FA1F6
S1131C200E944509611571058105910509F443C0B8
S1131C302B8131E0320F3B83DC01CB01820F911DFC
S1131C40A11DB11D88A799A7AAA7BBA7288D398D67
S1131C503170C201821B930B76018C159D0508F42B
S1131C607C0148A559A56AA57BA58114910411F0AE
S1131C70C30102C080E090E087010E9460088111E6
S1131C801AC0888D998DAA8DBB8D8E0D9F1DA11DA7
S1131C90B11D888F998FAA8FBB8F6E0C7F1CCE18B5
S1131CA0DF08F50180819181E80EF91EF182E0825E
S1131CB074CF80E006C01A8281E003C086E001C0D0
S1131CC085E0DF91CF911F910F91FF90EF90DF900E
S1131CD0CF90BF90AF909F908F907F906F905F90C8
S1131CE04F9008954F925F926F927F928F929F923E
S1131CF0AF92BF92CF92DF92EF92FF920F931F9316
S1131D00CF93DF936C018B015A01C0919E01D09156
S1131D109F01FA0111821082209709F4DAC08A81A6
S1131D2080FFD9C08074672B81F4811104C08A813B
S1131D308F7B8A83C9C040E050E0BA0180E090E024
S1131D400E94B3088111C2C0F2CF81110AC0888DEC
S1131D50998DAA8DBB8D88279E7F888F998FAA8F96
S1131D60BB8F8C8D9D8DAE8DBF8D488D598D6A8DA9
S1131D707B8D841B950BA60BB70BA80160E070E06C
S1131D8084179507A607B70708F48C01812CF2E0A5
S1131D909F2E0115110509F497C0488C598C6A8C43
S1131DA07B8CC2019170892B09F050C0298130E0ED
S1131DB040E050E0C301B201E9E09695879577953C
S1131DC06795EA95D1F70E949B11672B682B692BC5
S1131DD0D1F445284628472829F468A179A18AA185
S1131DE09BA106C06CA17DA18EA19FA10E94B909EF
S1131DF0623071058105910508F468C06CA37DA368
S1131E008EA39FA31B826CA17DA18EA19FA10E9482
S1131E104509611571058105910509F457C02B81A8
S1131E2031E0320F3B83AB01BC01420F511D611DF8
S1131E30711D48A759A76AA77BA780E090E00E947C
S1131E40B308811143C08A8180648A83888D998D07
S1131E5091709401281B390B78012017310708F47D
S1131E6079012701612C712CB301A201C6010E94E2
S1131E70B30881112BC0888D998DAA8DBB8D480E16
S1131E80591E6A1E7B1E488E598E6A8E7B8ECE0C1E
S1131E90DF1C0E191F09F50180819181E80EF91EDE
S1131EA0F182E082F1E05F22452809F072CF40E040
S1131EB050E0BA0180E090E00E94B308811106C0AE
S1131EC08A818F7B8A8365CF80E006C01A8281E095
S1131ED003C086E001C085E0DF91CF911F910F918F
S1131EE0FF90EF90DF90CF90BF90AF909F908F9036
S1131EF07F906F905F904F9008954F925F926F9292
S1131F007F928F929F92AF92BF92CF92DF92EF9285
S1131F10FF92CF93DF9300D000D000D0CDB7DEB7CF
S1131F2020919E0130919F013E832D83211531051F
S1131F3009F4F3C0D90112962C91129720FFEFC037
S1131F405C96CD90DD90ED90FC905F976C157D05CF
S1131F508E059F0510F46B017C01ED81FE81408CA0
S1131F60518C628C738C108E118E128E138EC11450
S1131F70D104E104F10409F4C8C0ED81FE8181803B
S1131F80912CA12CB12C39E0880C991CAA1CBB1CE7
S1131F903A95D1F7411451046104710409F440C025
S1131FA0F1E04F1A510861087108C701B601615088
S1131FB0710981099109A50194010E949B1129834A
S1131FC03A834B835C83C301B201A50194010E944F
S1131FD09B1189819A81AB81BC8182179307A407E5
S1131FE0B507F0F088279927DC0188199909AA090F
S1131FF0BB09482259226A227B22AD81BE815896B0
S11320004D925D926D927C925B97C418D508E60858
S1132010F70894966D917D918D919C91979733C01B
S1132020ED81FE8160A171A182A193A164A375A336
S113203086A397A328C00E94B9096230710581055F
S1132040910508F464C0ED81FE814084518462846A
S11320507384641575058605970508F058C064A354
S113206075A386A397A3408C518C628C738C480C07
S1132070591C6A1C7B1C408E518E628E738EC8184C
S1132080D908EA08FB088C149D04AE04BF0498F236
S1132090AD81BE8158968D909D90AD90BC905B971C
S11320A08C0C9D1CAE1CBF1CFD01808E918EA28EDB
S11320B0B38E0E944509611571058105910539F1B9
S11320C04601570129E0B694A794979487942A95DA
S11320D0D1F7F1E0DF22EE24FF24CD28CE28CF284B
S11320E029F4AD81BE8113968C920FC021E0280D96
S11320F0ED81FE812383DC01CB01880D991DAA1D8E
S1132100BB1D80A791A7A2A7B3A780E009C0AD819A
S1132110BE8112961C9281E003C086E001C085E076
S113212026960FB6F894DEBF0FBECDBFDF91CF91D8
S1132130FF90EF90DF90CF90BF90AF909F908F90E3
S11321407F906F905F904F9008951092B90080EC4B
S11321508093B800089594EA9093BC009091BC00D9
S113216097FFFCCF9091B900987F983021F090317F
S113217011F081E008958093BB0084E88093BC0053
S11321808091BC0087FFFCCF8091B900887F8831A3
S113219011F0803471F780E0089584E98093BC00E5
S11321A08091BC0084FDFCCF08958093BB0084E83B
S11321B08093BC008091BC0087FFFCCF9091B90054
S11321C0987F81E0983209F480E0089584E8809350
S11321D0BC008091BC0087FFFCCF8091BB000895B8
S11321E01F920F920FB60F9211242F938F939F93E8
S11321F0EF93FF938091C0009091C6008871E091A5
S1132200A201EF5FEF712091A101E21739F0E09391
S1132210A201F0E0EB55FE4F908301C082E0809371
S1132220A001FF91EF919F918F912F910F900FBE7D
S11322300F901F9018951F920F920FB60F921124B2
S11322408F939F93EF93FF939091A4018091A301A7
S1132250981769F0E091A301EF5FEF71E093A30198
S1132260F0E0EB53FE4F80818093C60005C080915F
S1132270C1008F7D8093C100FF91EF919F918F9159
S11322800F900FBE0F901F9018951092A4011092FA
S1132290A3011092A2011092A1019093C500809312
S11322A0C40088E18093C10086E08093C200089551
S11322B08091C00087FFFCCF8091C60090E0089514
S11322C00F931F93CF93DF938C01C0E0D0E00E9463
S11322D058118234910529F02097C9F38D34910562
S11322E051F0C130D10589F3C330D10539F48C31B3
S11322F0910539F01BC0C330D105C1F0CE31D105F1
S1132300A9F09E01245031092A31310520F4C0FD81
S113231002C0982F8827FE01EE0FFF1FE00FF11F68
S1132320918380832196C032D10589F6DF91CF91C4
S11323301F910F910895A1E21A2EAA1BBB1BFD0148
S11323400DC0AA1FBB1FEE1FFF1FA217B307E40790
S1132350F50720F0A21BB30BE40BF50B661F771FE8
S1132360881F991F1A9469F76095709580959095C8
S11323709B01AC01BD01CF0108950E94C811A59F26
S1132380900DB49F900DA49F800D911D112408956C
S1132390A29FB001B39FC001A39F700D811D1124A2
S11323A0911DB29F700D811D1124911D0895FB0193
S11323B0DC0102C001900D9241505040D8F70895BD
S11323C0FB01DC0101900D920020E1F70895BB2789
S11323D04A3031F4992322F4BDE2909581959F4FC0
S11323E00C94F311BB27FB015527AA27880F991FCB
S11323F0AA1FA41710F0A41B83955051B9F7A05D30
S1132400AA3308F0A95DA193009779F7B111B193AC
S11324101192CB010C942514AEE0B0E0E2E1F2E1BC
S11324200C94DD140D891E8986E08C831A8309833C
S11324308FEF9FE79E838D83AE01475E5F4F6F8969
S1132440788DCE0101960E942E12EF81F885E00F5F
S1132450F11F10822E96E4E00C94F914ABE0B0E086
S1132460E4E3F2E10C94CF146C017B018A01FC01DA
S113247017821682838181FFCCC1CE0101963C0173
S1132480F6019381F70193FD859193FF81917F017B
S1132490882309F4BAC1853239F493FD859193FFF9
S11324A081917F01853229F4B60190E00E943514B0
S11324B0E7CF912C212C312CFFE1F315D8F08B328E
S11324C079F038F4803279F08332A1F4232D20613D
S11324D01DC08D3261F0803369F4232D216016C054
S11324E0832D8260382EE32DE4603E2E2AC0F32D26
S11324F0F8601DC037FC2DC020ED280F2A3040F0B5
S11325008E32B9F436FC81C1232D2064322E19C0D9
S113251036FE06C08AE0989E200D1124922E11C02A
S1132520EAE02E9E200D1124222EF32DF0623F2E80
S113253008C08C3621F4832D8068382E02C088367A
S113254041F4F70193FD859193FF81917F018111FE
S1132550B3CF982F9F7D9554933028F40C5F1F4F71
S11325609FE399830DC0833631F0833771F083354F
S113257009F059C021C0F801808189830E5F1F4F83
S113258088248394912C530113C02801F2E04F0E48
S1132590511CF801A080B18036FE03C0692D70E0A3
S11325A002C06FEF7FEFC5010E941A144C01820133
S11325B0F32DFF773F2E16C0280122E0420E511C56
S11325C0F801A080B18036FE03C0692D70E002C01E
S11325D06FEF7FEFC5010E940F144C01F32DF068DB
S11325E03F2E820133FC1BC0822D90E08816990691
S11325F0B0F4B60180E290E00E9435142A94F4CF3E
S1132600F50137FC859137FE81915F01B60190E0B9
S11326100E94351421102A9421E0821A9108811411
S1132620910471F7E8C0843611F0893641F5F80158
S113263037FE07C060817181828193810C5F1F4FD7
S113264008C060817181072E000C880B990B0E5F06
S11326501F4FF32DFF763F2E97FF09C0909580956D
S1132660709561957F4F8F4F9F4FF0683F2E2AE002
S113267030E0A3010E947114882E861845C0853766
S113268031F4232D2F7EB22E2AE030E025C0932D85
S1132690997FB92E8F36C1F018F4883579F0B5C01A
S11326A0803719F0883721F0B0C0E92FE061BE2EE1
S11326B0B4FE0DC0FB2DF460BF2E09C034FE0AC069
S11326C0292F2660B22E06C028E030E005C020E1A4
S11326D030E002C020E132E0F801B7FE07C06081BB
S11326E07181828193810C5F1F4F06C0608171816B
S11326F080E090E00E5F1F4FA3010E947114882EAA
S11327008618FB2DFF773F2E36FE0DC0232D2E7F1E
S1132710A22E891458F434FE0BC032FC09C0832D58
S11327208E7EA82E05C0B82CA32C03C0B82C01C0E3
S1132730B92CA4FE0FC0FE01E80DF11D8081803389
S113274021F49A2D997EA92E09C0A2FE06C0B39445
S1132750B39404C08A2D867809F0B394A3FC11C005
S1132760A0FE06C0B21488F4280C922C9B180EC04C
S1132770B21460F4B60180E290E00E943514B39480
S1132780F7CFB21418F42B1802C0982C212CA4FEF5
S113279010C0B60180E390E00E943514A2FE17C079
S11327A0A1FC03C088E790E002C088E590E0B60190
S11327B00CC08A2D867859F0A1FE02C08BE201C0BC
S11327C080E2A7FC8DE2B60190E00E9435148914E2
S11327D038F4B60180E390E00E9435149A94F7CF60
S11327E08A94F301E80DF11D8081B60190E00E9406
S11327F035148110F5CF222009F442CEB60180E2CF
S113280090E00E9435142A94F6CFF60186819781D0
S113281002C08FEF9FEF2B96E2E10C94EB14FC01C6
S11328200590615070400110D8F7809590958E0FF7
S11328309F1F0895FC016150704001900110D8F76A
S1132840809590958E0F9F1F0895DC01FC01672FE2
S113285071917723E1F7329704C07C916D93708373
S11328606291AE17BF07C8F308950F931F93CF93D8
S1132870DF93FB01238121FD03C08FEF9FEF2CC069
S113288022FF16C0468157812481358142175307A0
S113289044F4A081B1819D012F5F3F4F3183208398
S11328A08C93268137812F5F3F4F3783268314C053
S11328B08B01EC01FB010084F185E02D0995892B46
S11328C0E1F6D80116968D919C911797019617966B
S11328D09C938E931697CE01DF91CF911F910F9108
S11328E00895FA01AA27283051F1203181F1E894A2
S11328F06F936E7F6E5F7F4F8F4F9F4FAF4FB1E0EF
S11329003ED0B4E03CD0670F781F891F9A1FA11DE9
S1132910680F791F8A1F911DA11D6A0F711D811DEA
S1132920911DA11D20D009F468943F912AE0269FAF
S113293011243019305D3193DEF6CF010895462F0E
S11329404770405D4193B3E00FD0C9F7F6CF462FEF
S11329504F70405D4A3318F0495D31FD4052419358
S113296002D0A9F7EACFB4E0A69597958795779515
S11329706795BA95C9F700976105710508959B019C
S1132980AC010A2E06945795479537952795BA9525
S1132990C9F7620F731F841F951FA01D08952F92FE
S11329A03F924F925F926F927F928F929F92AF92DB
S11329B0BF92CF92DF92EF92FF920F931F93CF9328
S11329C0DF93CDB7DEB7CA1BDB0B0FB6F894DEBFBF
S11329D00FBECDBF09942A88398848885F846E84E5
S11329E07D848C849B84AA84B984C884DF80EE802F
S11329F0FD800C811B81AA81B981CE0FD11D0FB638
S1132A00F894DEBF0FBECDBFED010895F894FFCF5B
S1132A10544553542E54585400504D53312E3020A5
S1132A203A20002F00504D53322E35203A200050CA
S1132A304D53313020203A00437A656B616D21009B
S1132A405A6C61206A616B6F7363212121005A6C97
S1132A50795F7374616E00446F627261206A616BA6
S1132A606F73632100446F6272795F7374616E00E7
S1132A707C504D312E302D25642F25642C504D3241
S1132A802E352D25642F25642C504D31302D256491
S1132A902F25642C25733A25642E25642E25642E57
S10D2AA025642E25642E2564000031
S9030000FC
